{
  "contractName": "PropertyContract",
  "abi": [
    {
      "constant": true,
      "inputs": [],
      "name": "ptype",
      "outputs": [
        {
          "name": "",
          "type": "string"
        }
      ],
      "payable": false,
      "stateMutability": "view",
      "type": "function"
    },
    {
      "constant": true,
      "inputs": [],
      "name": "cost",
      "outputs": [
        {
          "name": "",
          "type": "uint256"
        }
      ],
      "payable": false,
      "stateMutability": "view",
      "type": "function"
    },
    {
      "constant": true,
      "inputs": [],
      "name": "government",
      "outputs": [
        {
          "name": "",
          "type": "address"
        }
      ],
      "payable": false,
      "stateMutability": "view",
      "type": "function"
    },
    {
      "constant": true,
      "inputs": [],
      "name": "location",
      "outputs": [
        {
          "name": "",
          "type": "string"
        }
      ],
      "payable": false,
      "stateMutability": "view",
      "type": "function"
    },
    {
      "constant": true,
      "inputs": [],
      "name": "owner",
      "outputs": [
        {
          "name": "",
          "type": "address"
        }
      ],
      "payable": false,
      "stateMutability": "view",
      "type": "function"
    },
    {
      "constant": true,
      "inputs": [],
      "name": "size",
      "outputs": [
        {
          "name": "",
          "type": "uint256"
        }
      ],
      "payable": false,
      "stateMutability": "view",
      "type": "function"
    },
    {
      "constant": true,
      "inputs": [],
      "name": "tax",
      "outputs": [
        {
          "name": "",
          "type": "uint256"
        }
      ],
      "payable": false,
      "stateMutability": "view",
      "type": "function"
    },
    {
      "constant": true,
      "inputs": [],
      "name": "isGovernmentSigned",
      "outputs": [
        {
          "name": "",
          "type": "bool"
        }
      ],
      "payable": false,
      "stateMutability": "view",
      "type": "function"
    },
    {
      "constant": true,
      "inputs": [],
      "name": "owner_name",
      "outputs": [
        {
          "name": "",
          "type": "string"
        }
      ],
      "payable": false,
      "stateMutability": "view",
      "type": "function"
    },
    {
      "constant": false,
      "inputs": [
        {
          "name": "newOwner",
          "type": "address"
        }
      ],
      "name": "transferOwnership",
      "outputs": [],
      "payable": false,
      "stateMutability": "nonpayable",
      "type": "function"
    },
    {
      "constant": true,
      "inputs": [],
      "name": "governmentSignedTime",
      "outputs": [
        {
          "name": "",
          "type": "uint256"
        }
      ],
      "payable": false,
      "stateMutability": "view",
      "type": "function"
    },
    {
      "inputs": [
        {
          "name": "_ownername",
          "type": "string"
        },
        {
          "name": "_location",
          "type": "string"
        },
        {
          "name": "_type",
          "type": "string"
        },
        {
          "name": "_size",
          "type": "uint256"
        },
        {
          "name": "_cost",
          "type": "uint256"
        },
        {
          "name": "_tax",
          "type": "uint256"
        }
      ],
      "payable": false,
      "stateMutability": "nonpayable",
      "type": "constructor"
    },
    {
      "anonymous": false,
      "inputs": [
        {
          "indexed": true,
          "name": "owner_address",
          "type": "address"
        },
        {
          "indexed": false,
          "name": "created_time",
          "type": "uint256"
        }
      ],
      "name": "NewPropertyCreated",
      "type": "event"
    },
    {
      "anonymous": false,
      "inputs": [
        {
          "indexed": false,
          "name": "time",
          "type": "uint256"
        }
      ],
      "name": "GovernmentSigned",
      "type": "event"
    },
    {
      "anonymous": false,
      "inputs": [
        {
          "indexed": true,
          "name": "previousOwner",
          "type": "address"
        },
        {
          "indexed": true,
          "name": "newOwner",
          "type": "address"
        }
      ],
      "name": "OwnershipTransferred",
      "type": "event"
    },
    {
      "constant": false,
      "inputs": [],
      "name": "GovernmentSign",
      "outputs": [
        {
          "name": "",
          "type": "bool"
        }
      ],
      "payable": false,
      "stateMutability": "nonpayable",
      "type": "function"
    },
    {
      "constant": true,
      "inputs": [],
      "name": "checkGovernmentSigned",
      "outputs": [
        {
          "name": "",
          "type": "bool"
        }
      ],
      "payable": false,
      "stateMutability": "view",
      "type": "function"
    }
  ],
  "bytecode": "0x60806040526007805460a060020a60ff021916905534801561002057600080fd5b506040516107493803806107498339810160409081528151602080840151928401516060850151608086015160a087015160008054600160a060020a0319163317905594870180519097968701969390930194919390926100879160019190890190610100565b50845161009b906002906020880190610100565b5083516100af906003906020870190610100565b5060048390556005829055600681905560408051428152905133917f8a4ce6d040bdad75d845dafc620356de924b3d0fb9e24a8a07e09e67036fe1f4919081900360200190a250505050505061019b565b828054600181600116156101000203166002900490600052602060002090601f016020900481019282601f1061014157805160ff191683800117855561016e565b8280016001018555821561016e579182015b8281111561016e578251825591602001919060010190610153565b5061017a92915061017e565b5090565b61019891905b8082111561017a5760008155600101610184565b90565b61059f806101aa6000396000f3006080604052600436106100c45763ffffffff7c01000000000000000000000000000000000000000000000000000000006000350416630782d59b81146100c95780630b2f19231461015357806313faede61461017c5780632672f526146101a3578063516f279e146101d457806365eac46a146101e95780638da5cb5b146101fe578063949d225d1461021357806399c8d55614610228578063a61201d21461023d578063b1aa9a1214610252578063f2fde38b14610267578063f9d345dc1461028a575b600080fd5b3480156100d557600080fd5b506100de61029f565b6040805160208082528351818301528351919283929083019185019080838360005b83811015610118578181015183820152602001610100565b50505050905090810190601f1680156101455780820380516001836020036101000a031916815260200191505b509250505060405180910390f35b34801561015f57600080fd5b5061016861032d565b604080519115158252519081900360200190f35b34801561018857600080fd5b506101916103b5565b60408051918252519081900360200190f35b3480156101af57600080fd5b506101b86103bb565b60408051600160a060020a039092168252519081900360200190f35b3480156101e057600080fd5b506100de6103ca565b3480156101f557600080fd5b50610168610422565b34801561020a57600080fd5b506101b8610443565b34801561021f57600080fd5b50610191610452565b34801561023457600080fd5b50610191610458565b34801561024957600080fd5b5061016861045e565b34801561025e57600080fd5b506100de61047f565b34801561027357600080fd5b50610288600160a060020a03600435166104d9565b005b34801561029657600080fd5b5061019161056d565b6003805460408051602060026001851615610100026000190190941693909304601f810184900484028201840190925281815292918301828280156103255780601f106102fa57610100808354040283529160200191610325565b820191906000526020600020905b81548152906001019060200180831161030857829003601f168201915b505050505081565b600754600090600160a060020a0316331461034757600080fd5b6007805474ff00000000000000000000000000000000000000001916740100000000000000000000000000000000000000001790556040805142815290517f8c54b964bc0b619734b34aad713c1ef0c285e8a80cbc48cbb886f400d61b523f9181900360200190a150600190565b60055481565b600754600160a060020a031681565b6002805460408051602060018416156101000260001901909316849004601f810184900484028201840190925281815292918301828280156103255780601f106102fa57610100808354040283529160200191610325565b60075474010000000000000000000000000000000000000000900460ff1690565b600054600160a060020a031681565b60045481565b60065481565b60075474010000000000000000000000000000000000000000900460ff1681565b60018054604080516020600284861615610100026000190190941693909304601f810184900484028201840190925281815292918301828280156103255780601f106102fa57610100808354040283529160200191610325565b600054600160a060020a031633146104f057600080fd5b600160a060020a038116151561050557600080fd5b60008054604051600160a060020a03808516939216917f8be0079c531659141344cd1fd0a4f28419497f9722a3daafe3b4186f6b6457e091a36000805473ffffffffffffffffffffffffffffffffffffffff1916600160a060020a0392909216919091179055565b600854815600a165627a7a7230582037c5375085f0082b58bcbfac01125a85b774de6e19a73f0d9087b5542c47ea730029",
  "source": "pragma solidity ^0.4.19;\n\ncontract Ownable {\n  address public owner;\n\n\n  event OwnershipTransferred(address indexed previousOwner, address indexed newOwner);\n\n\n  /**\n   * @dev The Ownable constructor sets the original `owner` of the contract to the sender\n   * account.\n   */\n  constructor() public{\n    owner = msg.sender;\n  }\n\n\n  /**\n   * @dev Throws if called by any account other than the owner.\n   */\n  modifier onlyOwner() {\n    require(msg.sender == owner);\n    _;\n  }\n\n\n  /**\n   * @dev Allows the current owner to transfer control of the contract to a newOwner.\n   * @param newOwner The address to transfer ownership to.\n   */\n  function transferOwnership(address newOwner) onlyOwner public {\n    require(newOwner != address(0));\n    emit OwnershipTransferred(owner, newOwner);\n    owner = newOwner;\n  }\n\n}\n\ncontract PropertyContract is Ownable{\n\n\tstring public owner_name;\n\tstring public location;\n\tstring public ptype;\n\tuint   public size;\n\tuint   public cost;\n\tuint   public tax;\n\n\taddress public government;\n\n\tbool public isGovernmentSigned = false;\n\tuint public governmentSignedTime;\n\n\tevent NewPropertyCreated(address indexed owner_address, uint created_time);\n\tevent GovernmentSigned(uint time);\n\n\t\n    constructor (string _ownername, string _location, string _type, uint _size, uint _cost, uint _tax) public {\n      owner_name = _ownername;\n      location   = _location;\n      ptype      = _type;\n      size       = _size;\n      cost       = _cost;\n      tax        = _tax;\n      emit NewPropertyCreated(msg.sender, now);\n    }\n\n    modifier onlyGovernment() { \n    \trequire (msg.sender == government); \n    \t_; \n    }\n    \n\n    function GovernmentSign() onlyGovernment public returns(bool){\n    \tisGovernmentSigned = true;\n    \temit GovernmentSigned(now);\n    \treturn true;\n    }\n\n    function checkGovernmentSigned() public constant returns(bool) {\n    \treturn isGovernmentSigned;\n    }\n\n}\n",
  "sourcePath": "C:\\xampp\\htdocs\\propertytransfer\\propertytransfer\\contracts\\PropertyContract.sol",
  "compiler": {
    "name": "solc",
    "version": "0.4.24+commit.e67f0147.Emscripten.clang"
  },
  "schemaVersion": "2.0.0",
  "updatedAt": "2018-08-20T12:29:14.044Z"
}